:100000000C9464000C948C000C948C000C948C0068
:100010000C948C000C948C000C948C000C948C0030
:100020000C948C000C948C000C948C000C94161C7A
:100030000C948C000C948C000C948C000C948C0010
:100040000C9469140C948C000C94BA150C94EC1557
:100050000C948C000C948C000C948C000C948C00F0
:100060000C948C000C948C0000000008000201002D
:100070000003040700000000000000000102040863
:100080001020408001020408102001020408102002
:10009000040404040404040402020202020203032E
:1000A00003030303000000002300260029000000D2
:1000B0000000250028002B0000000000240027007D
:1000C0002A00E7131C16171411241FBECFEFD8E027
:1000D000DEBFCDBF16E0A0E0B1E0E2EEF8E402C082
:1000E00005900D92AA38B107D9F727E0AAE8B6E043
:1000F00001C01D92AB3AB207E1F710E0C6ECD0E0C8
:1001000004C02297FE010E945124C23CD107C9F7C6
:100110000E94C21A0C9469200C940000FC01648DAA
:10012000758D868D978D0895CF93DF93EC014C8765
:100130005D876E877F87AA81BB819A01AB010E9490
:1001400010249B01AC01AC81BD810E9410249B0155
:10015000AC0160E077E883E993E00E94E623398B05
:10016000288BDF91CF910895FC01448B558B668BD2
:10017000778B08950F931F93CF93DF93EC018B013F
:100180007D836C83AA81BB812C853D854E855F85EF
:100190000E9410249B01AC01D8010E9410249B01F5
:1001A000AC0160E077E883E993E00E94E623398BB5
:1001B000288B89A1882311F01F830E83DF91CF91B3
:1001C0001F910F9108958F929F92BF92CF92DF92CD
:1001D000EF92FF920F931F93CF93DF931F92CDB7B0
:1001E000DEB74C01142FBE2CFC0173836283408761
:1001F00021870287E386148E158E168E178E148A39
:10020000158A168A178A108E118E128E138E44EF5D
:1002100051E060E070E029830E94940080EDC82ED8
:1002200087E0D82EE12CF12CF401C48AD58AE68A25
:10023000F78AFF24F394F1A261E070E0C4010E9408
:10024000BA00F40112A261E0812F0E94221561E040
:100250002981822F0E94221561E0802F0E942215A1
:1002600060E0802F0E945B15F401F0A262E08B2D0C
:100270000F90DF91CF911F910F91FF90EF90DF9042
:10028000CF90BF909F908F900C942215EF92FF9289
:100290000F931F93CF93DF93CDB7DEB762970FB65F
:1002A000F894DEBF0FBECDBF8C017B01FB016681E0
:1002B00077814AE0CE0101960E941B17F701648105
:1002C00075814AE0CE010D960E941B176AE071E02D
:1002D000CE0107960E94CD16BE01635F7F4FCE010F
:1002E00007960E94861760E271E00E949917BE018E
:1002F0006F5F7F4F0E948617BC01C8010E94FA16EB
:10030000CE0107960E945F16CE010D960E945F16E1
:10031000CE0101960E945F16C80162960FB6F8944E
:10032000DEBF0FBECDBFDF91CF911F910F91FF9028
:10033000EF900895FC0162A30895CF93DF93EC0141
:1003400060E08A850E945B1584E690E00E94B31409
:1003500081E088A3DF91CF910895CF93DF93EC01E3
:1003600061E08A850E945B1584E690E00E94B314E8
:1003700018A2DF91CF91089581E090E00895CF9386
:10038000DF93EC0161E089850E945B1584E690E0D3
:100390000E94B31460E089850E945B1584E690E0BA
:1003A000DF91CF910C94B314FC0182A1882319F042
:1003B00081E08627682F80850E945B1584E690E0A7
:1003C0000C94B3148F929F92AF92BF92CF92DF9210
:1003D000EF92FF92CF93DF93EC01AE81BF819A0140
:1003E000AB010E9410246B017C018C8D9D8DAE8D24
:1003F000BF8D8C0D9D1DAE1DBF1D4C895D896E8905
:100400007F89481759076A077B070CF45FC0488D3E
:10041000598D6A8D7B8D84179507A607B7070CF455
:1004200055C0F7FC25C060E0CE010E94D401812CAC
:10043000912C54018C149D04AE04BF0409F443C0F4
:10044000CE010E94BF018C8D9D8DAE8DBF8D01961A
:10045000A11DB11D8C8F9D8FAE8FBF8F888999890B
:100460000E94B3148FEF881A980AA80AB80AE2CF3C
:10047000F094E094D094C094C11CD11CE11CF11CF8
:1004800061E0CE010E94D401812C912C5401CE0157
:100490000E94BF018C8D9D8DAE8DBF8D0197A109EE
:1004A000B1098C8F9D8FAE8FBF8F888999890E94EB
:1004B000B3148FEF881A980AA80AB80A8C149D04FE
:1004C000AE04BF0424F380E090E002C081E090E03D
:1004D000DF91CF91FF90EF90DF90CF90BF90AF90E2
:1004E0009F908F900895CF93DF93EC010E94AD0110
:1004F00061E0CE010E94D4018B850E949115892B69
:1005000041F4CE010E94BF01888999890E94B314E9
:10051000F3CF1C8E1D8E1E8E1F8ECE01DF91CF91CC
:100520000C949D0169E371E084EE96E00E94BA1894
:100530006AE771E084EE96E00E94BA186FEA71E013
:1005400084EE96E00E94BA186BEC71E084EE96E0BF
:100550000E94BA1867EF71E084EE96E00E94BA1824
:1005600069E172E084EE96E00E94BA186BE272E0F4
:1005700084EE96E00E94BA186EE472E084EE96E093
:100580000E94BA1868E672E084EE96E00C94BA18FD
:1005900062E870E082E996E00C94A51D64E670E0E4
:1005A00082E996E00C94A51DCF93DF93EC0188EBD4
:1005B00096E00E94AD01BE01882777FD8095982FB7
:1005C0000E94CD2123EF36EB4CEA5CE30E943221FE
:1005D0000E949A21AB01BC0188EB96E00E94E201E7
:1005E000EC0188EB96E00E949D01CE01DF91CF9156
:1005F0000895CF93DF93EC0185E996E00E94AD0169
:10060000BE01882777FD8095982F0E94CD2123EF8A
:1006100036EB4CEA5CE30E9432210E949A21AB0146
:10062000BC0185E996E00E94E201EC0185E996E0D3
:100630000E949D01CE01DF91CF910895CF93DF936A
:10064000EC0188EB96E00E94AD0169E972E084EE6E
:1006500096E00E949B184AE050E0BE0184EE96E0CE
:100660000E946F1961EA72E084EE96E00E949B1886
:10067000AE01662757FD6095762F88EB96E00E94C5
:10068000E201EC01009739F467EB72E084EE96E04A
:100690000E94BA180DC06EEB72E084EE96E00E94E4
:1006A0009B184AE050E0BE0184EE96E00E94771964
:1006B00088EB96E0DF91CF910C949D01CF93DF936F
:1006C000EC0185E996E00E94AD0169E972E084EEF3
:1006D00096E00E949B184AE050E0BE0184EE96E04E
:1006E0000E946F1967EC72E084EE96E00E949B18FE
:1006F000AE01662757FD6095762F85E996E00E944A
:10070000E201EC01009719F467EB72E00FC062EEB2
:1007100072E084EE96E00E949B184AE050E0BE0131
:1007200084EE96E00E946F1965EC72E084EE96E02C
:100730000E94BA1885E996E0DF91CF910C949D0153
:1007400082E090E00E94D4028CEF9FEF0E94D402DE
:1007500082E090E00C94D40282E090E00E94F902E2
:100760008CEF9FEF0E94F90282E090E00C94F90276
:1007700088EB96E00E94AD0185E996E00C94AD010E
:1007800088EB96E00E949D0185E996E00C949D011E
:1007900026E040E052EC61E070E084EE96E00E94DA
:1007A000B41B6AEE72E084EE96E00E949B1888EB20
:1007B00096E00E94BC014AE050E0BC0184EE96E065
:1007C0000E94771984EE96E00E94A41840ED57E04D
:1007D00060E070E088EB96E00E94940048EE53E001
:1007E00060E070E085E996E00E94940044E351E205
:1007F00060E070E088EB96E00E94B40044E351E2D0
:1008000060E070E085E996E00E94B40062E070E08C
:1008100088EB96E00E94BA0061E070E085E996E01E
:100820000E94BA0061E085E996E00E949A0148EED4
:1008300053E060E070E085E996E00E9494006BE090
:1008400070E082E996E00E946C1D62E870E082E947
:1008500096E00E94A51D0C94C0032F923F924F92E8
:100860005F926F927F928F929F92AF92BF92CF9240
:10087000DF92EF92FF920F931F93CF93DF9300D0FD
:1008800000D000D0CDB7DEB78C017B010E94B80349
:10089000380117FF04C066247724601A710A101605
:1008A000110624F444244394512C03C044244A9454
:1008B000542C4701F7FE04C0882499248E189F0801
:1008C00088279927881999099A8389831E141F04F8
:1008D00024F422242394312C03C022242A94322C81
:1008E000F301E819F909FE83ED836CE173E084EE0E
:1008F00096E00E94BA18C12CD12CA12CB12C4AE050
:1009000050E0B50184EE96E00E946F1960E273E05A
:1009100084EE96E00E949B184AE050E0B60184EE17
:1009200096E00E947719A016B10619F4CE14DF04E0
:1009300089F12D813E81220F331F89819A8182178F
:100940009307A4F4ED81FE81E819F909FE83ED8394
:10095000A40CB51C41E050E060E070E088EB96E04C
:100960002B833C830E94E2013C812B8126153705B5
:1009700034F68D819E81860D971D9E838D83C20CDA
:10098000D31C41E050E060E070E085E996E00E9411
:10099000E201B5CF26960FB6F894DEBF0FBECDBFED
:1009A000DF91CF911F910F91FF90EF90DF90CF904B
:1009B000BF90AF909F908F907F906F905F904F907F
:1009C0003F902F900C94C0030F931F93CF93DF930E
:1009D000EC018B0169E972E084EE96E00E949B18BD
:1009E0004AE050E0BE0184EE96E00E946F1961EA91
:1009F00072E084EE96E00E949B1860E474E084EE5E
:100A000096E00E949B184AE050E0B80184EE96E020
:100A10000E946F1962E273E084EE96E00E94BA18B9
:100A2000B801CE01DF91CF911F910F910C942D044D
:100A3000CF92DF92EF92FF92CF93DF93EC010E946F
:100A4000B8036E01EE24D7FCE094FE2CB701A6019A
:100A500088EB96E00E94E201B701A60185E996E0E5
:100A60000E94E201CC24DD24CC1ADD0AEE24D7FC5E
:100A7000E094FE2CB701A60188EB96E00E94E2010B
:100A8000B701A60185E996E00E94E201DF91CF91CE
:100A9000FF90EF90DF90CF900C94C0032F923F9285
:100AA0004F925F926F927F928F929F92AF92BF927E
:100AB000CF92DF92EF92FF920F931F93CF93DF932A
:100AC000CDB7DEB72D970FB6F894DEBF0FBECDBF02
:100AD0009E838D836B0142EC51E060E070E088EB17
:100AE00096E00E94940042EC51E060E070E085E9FD
:100AF00096E00E9494000E94B8036BE373E084EEDA
:100B000096E00E949B184AE050E06D817E8184EE61
:100B100096E00E946F196FE473E084EE96E00E9405
:100B20009B184AE050E0B60184EE96E00E947719E7
:100B30002D813E81B901882777FD8095982F0E94ED
:100B4000CD218B018D879C87EE24D7FCE094FE2C71
:100B5000C701B6010E94CD2169837A838B839C8370
:100B60000E94C80264E573E084EE96E00E94BA1821
:100B7000B701A60185E996E00E94E20162E673E012
:100B800084EE96E00E94BA180E94CE026EE673E0F0
:100B900084EE96E00E94BA18C12CD12C7601212C4B
:100BA000312C98014D855C85C701B6010E942E212C
:100BB00087FF72C029813A814B815C81CA01B901EA
:100BC0000E94D4224B015C01A7019601C701B60126
:100BD0000E94D4222B013C0198014D855C85B8010F
:100BE0008D859C850E94D4229B01AC01C301B2017A
:100BF0000E9432219B01AC0160E070E080E89FE33D
:100C00000E94C9209B01AC01C501B4010E94D422FD
:100C10000E943B234B015C0120E030E0A9010E94CF
:100C2000D02220E030E040E05FE387FD05C0C50151
:100C3000B4010E94CA2004C0C501B4010E94C920A9
:100C40000E949A215B0141E050E060E070E088EB97
:100C500096E00E94E20120E030E0A901C701B60160
:100C60000E94D022181664F4C50182199309AC01C0
:100C7000662757FD6095762F85E996E00E94E20190
:100C800020E030E040E85FE3C701B6010E94CA20DF
:100C90006B017C01150185CF6BE773E084EE96E074
:100CA0000E94BA18502E612E7D844C8420E030E0E2
:100CB000A901652D762D872D942D0E94D02218161E
:100CC0000CF085C029813A814B815C81CA01B90150
:100CD0000E94D4226B017C01252D362D472D542DE9
:100CE000652D762D872D942D0E94D4224B015C0119
:100CF00098014D855C85B8018D859C850E94D42224
:100D00009B01AC01C501B4010E9432219B01AC01E1
:100D100060E070E080E89FE30E94C9209B01AC0185
:100D2000C701B6010E94D4220E943B234B015C0103
:100D30006B017C01F7FAF094F7F8F09420E030E0D2
:100D4000A901C701B6010E94D02287FD07C0A501F5
:100D5000940160E070E080E09FE306C020E030E0B6
:100D600040E05FE3C701B6010E94C9200E949A21BA
:100D70007B014FEF5FEFBA0188EB96E00E94E20142
:100D800098014D855C85652D762D872D942D0E94CB
:100D90002E2187FF0CC0C70182199309AC01662779
:100DA00057FD6095762F85E996E00E94E20120E0EC
:100DB00030E040E85FE3652D762D872D942D0E946D
:100DC000C920562E672E782E492E17016FCF68E85E
:100DD00073E084EE96E00E94BA18C12CD12C760103
:100DE0008D819E819195819591099C01442737FDC4
:100DF0004095542F2D833E834F8358876D817E818C
:100E00008F8198850E94CD21562E672E782E492EEF
:100E1000262F372F482F592FC701B6010E94D02205
:100E200018160CF07AC029813A814B815C81CA0185
:100E3000B9010E94D4224B015C01A7019601C701B0
:100E4000B6010E94D4222B013C0198014D855C859E
:100E5000B8018D859C850E94D4229B01AC01C30101
:100E6000B2010E9432219B01AC0160E070E080E899
:100E70009FE30E94C9209B01AC01C501B4010E94FF
:100E8000D4220E943B232B013C014B015C01B7FAA9
:100E9000B094B7F8B09420E030E0A901C501B401E6
:100EA0000E94D02287FD07C0A301920160E070E09C
:100EB00080E09FE306C020E030E040E05FE3C50152
:100EC000B4010E94C9200E949A215B014FEF5FEF9D
:100ED000BA0188EB96E00E94E20120E030E0A9012F
:100EE000C701B6010E942E2187FF0BC0A501421940
:100EF0005309662757FD6095762F85E996E00E9495
:100F0000E20120E030E040E85FE3C701B6010E9463
:100F1000C9206B017C01150171CF5D8269867A86DB
:100F20004B8665E973E084EE96E00E94BA1820E0F3
:100F300030E0A901652D762D872D942D0E942E215C
:100F400087FF7DC029813A814B815C81CA01B9014B
:100F50000E94D4226B017C01252D362D472D542D66
:100F6000652D762D872D942D0E94D4224B015C0196
:100F700098014D855C85B8018D859C850E94D422A1
:100F80009B01AC01C501B4010E9432219B01AC015F
:100F900060E070E080E89FE30E94C9209B01AC0103
:100FA000C701B6010E94D4220E943B236B017C0141
:100FB00020E030E0A9010E94D02220E030E040E0B3
:100FC0005FE387FD05C0C701B6010E94CA2004C0C7
:100FD000C701B6010E94C9200E949A217B0141E00D
:100FE00050E060E070E088EB96E00E94E2012D8125
:100FF00039854A855B85652D762D872D942D0E9438
:10100000D022181664F4C70182199309AC0166272F
:1010100057FD6095762F85E996E00E94E20120E079
:1010200030E040E85FE3652D762D872D942D0E94FA
:10103000CA20562E672E782E492E170178CF2D966E
:101040000FB6F894DEBF0FBECDBFDF91CF911F91D9
:101050000F91FF90EF90DF90CF90BF90AF909F9057
:101060008F907F906F905F904F903F902F900C9457
:10107000C0038F929F92AF92BF92CF92DF92EF9276
:10108000FF927C014AE050E0BC0184EE96E00E94B1
:101090007719B701882777FD8095982F0E94CD2179
:1010A0004B015C0123EF36EB4CEA5CE30E943221FA
:1010B0006B017C0122E030E0AB01BC0184EE96E0E4
:1010C0000E94AF1A2CE032E04BEA5CE3C501B401A8
:1010D0000E9432214B015C0122E030E0AB01BC01F7
:1010E00084EE96E00E94AF1AC501B4010E949A21D5
:1010F0004B015C01C701B6010E949A21DC01CB01C2
:10110000B401FF90EF90DF90CF90BF90AF909F9091
:101110008F900C944E058F929F92AF92BF92CF9278
:10112000DF92EF92FF920F931F93CF93DF936C01A7
:101130007B018A01E9010E94B80342EC51E060E0C2
:1011400070E088EB96E00E94940042EC51E060E091
:1011500070E085E996E00E949400C114D10429F062
:10116000CA94CD2809F477C0EFC062EA73E084EE38
:1011700096E00E94BA180E94C802C7010E94D402D9
:101180000E94CE02C801209709F443C0BE010E940C
:10119000B02380E090E00E94CB210E94082220E052
:1011A00030E040E85FE30E94C9204B015C01C12CA4
:1011B000D12CB60180E090E00E94CB21A5019401E2
:1011C0000E942E2187FF09C0CE010E94F9020E94D1
:1011D000A0038FEFC81AD80AECCFCE010E94F90203
:1011E000C701BE010E94B02380E090E00E94CB21A5
:1011F0000E94082220E030E040E85FE30E94C9201E
:101200004B015C01E12CF12CCC24DD24CC1ADD0A4D
:1012100004C00E94F902C80118C0B70180E090E044
:101220000E94CB21A50194010E942E2187FF09C0B5
:10123000C6010E94D4020E94AC038FEFE81AF80A9C
:10124000ECCF882799278C1B9D0B0E94D402C801E4
:101250000E94D4027FC065EC73E084EE96E00E94A9
:10126000BA180E94C802C7010E94D4020E94CE028E
:10127000C801209751F1880F991FBE010E94B02329
:1012800080E090E00E94CB210E94082220E030E024
:1012900040E85FE30E94C9204B015C01C12CD12CC6
:1012A000B60180E090E00E94CB21A50194010E944C
:1012B0002E2187FF09C0CE010E94F9020E94A003DF
:1012C0008FEFC81AD80AECCFCE010E94F902882706
:1012D0009927801B910B0E94F902C7010E94D4023A
:1012E000209771F1C701880F991FBE010E94B0239A
:1012F00080E090E00E94CB210E94082220E030E0B4
:1013000040E85FE30E94C9204B015C01E12CF12C15
:10131000CC24DD24CC1ADD0AB70180E090E00E94E5
:10132000CB21A50194010E942E2187FF8ACFC601FF
:101330000E94D4020E94AC038FEFE81AF80AECCFA7
:10134000C801880F991F81CF67EE73E084EE96E0A5
:101350000E94BA180E94C802DF91CF911F910F918D
:10136000FF90EF90DF90CF90BF90AF909F908F90C5
:101370000C94C0034F925F926F927F928F929F92D4
:10138000AF92BF92CF92DF92EF92FF920F931F9393
:10139000CF93DF93CDB7DEB72C970FB6F894DEBFAF
:1013A0000FBECDBF4C015B017A01690142EC51E0F7
:1013B00060E070E088EB96E00E94940042EC51E01F
:1013C00060E070E085E996E00E9494000E94B80316
:1013D0006BEF73E084EE96E00E949B184AE050E0C9
:1013E000B40184EE96E00E946F1969E174E084EE26
:1013F00096E00E949B184AE050E0B50184EE96E02A
:101400000E9477190E94CE02CA94CD2809F0CCC060
:10141000B801882777FD8095982F0E94CD212B0158
:101420003C016CE174E084EE96E00E94BA18B701CA
:10143000882777FD8095982F0E94CD2123EF36EBEA
:101440004CEA5CE30E94322169837A838B839C831C
:10145000C12CD12C760100E010E0C401AA2797FD31
:10146000A095BA2F8D839E83AF83B887C501AA2725
:1014700097FDA095BA2F89879A87AB87BC8729816A
:101480003A814B815C81C701B6010E942E2187FF02
:101490008BC06D817E818F8198850E94CD214B010B
:1014A0005C0123EF36EB4CEA5CE3C301B2010E941E
:1014B00032210E949A21882777FD8095982F0E94DB
:1014C000CD219B01AC01C701B6010E9432219B01D5
:1014D000AC01C501B4010E94D4224B015C016985B5
:1014E0007A858B859C850E94CD219B01AC01C5012D
:1014F000B4010E94CA204B015C012CE032E04BEAAF
:101500005CE3C301B2010E9432210E949A21882724
:1015100077FD8095982F0E94CD219B01AC01C501DC
:10152000B4010E94D4224B015C0120E030E0A9010B
:101530000E94D02220E030E040E05FE387FD05C05C
:10154000C501B4010E94CA2004C0C501B4010E94B3
:10155000C9200E949A215B0141E050E060E070E008
:1015600088EB96E00E94E20120E030E0A901C7018B
:10157000B6010E94D02218165CF4A501401B510B45
:10158000662757FD6095762F85E996E00E94E20177
:1015900020E030E040E85FE3C701B6010E94CA20C6
:1015A0006B017C0185016BCF2C960FB6F894DEBFE2
:1015B0000FBECDBFDF91CF911F910F91FF90EF90A4
:1015C000DF90CF90BF90AF909F908F907F906F9063
:1015D0005F904F900C94C0032F923F924F925F9276
:1015E0006F927F928F929F92AF92BF92CF92DF9233
:1015F000EF92FF920F931F93CF93DF93CDB7DEB798
:1016000068970FB6F894DEBF0FBECDBF7C013B01DB
:101610005E8B4D8B0E94B8030E94CE0288EB96E051
:101620000E948E006D877E878F87988B85E996E074
:101630000E948E00698B7A8B8B8B9C8BB7018827DD
:1016400077FD8095982F0E94CD216B017C0123EFBF
:1016500036EB4CEA5CE30E9432210E949A214B0156
:101660005C017E836D832CE032E04BEA5CE3C701D2
:10167000B6010E9432210E949A216B017C017A837B
:101680006983B301882777FD8095982F0E94CD212B
:101690002B013C0123EF36EB4CEA5CE30E94322144
:1016A0000E949A2169877A878B879C8729843A844C
:1016B0002CE032E04BEA5CE3C301B2010E9432212C
:1016C0000E949A212B013C019B014AE050E0B401A9
:1016D00084EE96E04F8A388F0E9477194AE050E0F6
:1016E000B60184EE96E00E9477194AE050E06985E1
:1016F0007A8584EE96E00E9477194AE050E0B201C4
:1017000084EE96E00E94771900E010E089819A81CA
:10171000AA2797FDA095BA2F89839A83AB83BC83B0
:101720008D819E81AA2797FDA095BA2F8D839E83D8
:10173000AF83B8872F89388D88249924821A930A19
:10174000AA2497FCA094BA2CCC24DD24C218D30878
:10175000EE24D7FCE094FE2CAD89BE890A171B0746
:10176000FCF449815A816B817C8185E996E00E9475
:10177000E2014D815E816F81788588EB96E00E9461
:10178000E201B501A40185E996E00E94E201B701FA
:10179000A60188EB96E00E94E2010F5F1F4FDCCFAD
:1017A000A201662757FD6095762F85E996E00E9495
:1017B000E20160E374E084EE96E00E949B1888EBFF
:1017C00096E00E948E00AB01BC018D859E85AF85A1
:1017D000B889481B590B6A0B7B0B2AE030E084EE7A
:1017E00096E00E94251967E374E084EE96E00E947B
:1017F0009B1885E996E00E948E00AB01BC018989A7
:101800009A89AB89BC89481B590B6A0B7B0B2AE070
:1018100030E084EE96E00E94251965E474E084EEE1
:1018200096E00E94BA180E94C00368960FB6F8941A
:10183000DEBF0FBECDBFDF91CF911F910F91FF9003
:10184000EF90DF90CF90BF90AF909F908F907F9060
:101850006F905F904F903F902F900C94C8022F9202
:101860003F924F925F926F927F928F929F92AF9230
:10187000BF92CF92DF92EF92FF920F931F93CF937D
:10188000DF93CDB7DEB766970FB6F894DEBF0FBE15
:10189000CDBF7C016B015A83498319010E94B803B3
:1018A0000E94CE0288EB96E00E948E0069877A87BC
:1018B0008B879C8785E996E00E948E006D877E87E6
:1018C0008F87988BB701882777FD8095982F0E9486
:1018D000CD2123EF36EB4CEA5CE30E9432210E94DB
:1018E0009A212B013C017A8B698BB601882777FD01
:1018F0008095982F0E94CD212CE032E04BEA5CE3EA
:101900000E9432210E949A214B015C017E836D83EB
:1019100029813A81B901882777FD8095982F0E9407
:10192000CD2123EF36EB4CEA5CE30E9432210E948A
:101930009A216B017C017C8B6B8BB101882777FD31
:101940008095982F0E94CD212CE032E04BEA5CE399
:101950000E9432210E949A2169837A838B839C831F
:1019600029813A814AE050E0B20184EE96E02D8B65
:101970003E8B0E9477194AE050E0B40184EE96E075
:101980000E9477194AE050E0B60184EE96E00E948A
:1019900077194AE050E069817A8184EE96E00E94EE
:1019A0007719212C312C8D819E81AA2797FDA09536
:1019B000BA2F8D839E83AF83B887A989BA892D01F9
:1019C000662457FC6094762C2D893E8988249924BE
:1019D000821A930AAA2497FCA094BA2CCB88DC889C
:1019E000D194C194D108EE24D7FCE094FE2C2016AB
:1019F0003106F4F44D815E816F81788585E996E04A
:101A00000E94E201B301A20188EB96E00E94E2018C
:101A1000B501A40185E996E00E94E201B701A601A3
:101A200088EB96E00E94E201BFEF2B1A3B0ADFCF62
:101A3000E981FA81AF01662757FD6095762F85E928
:101A400096E00E94E20160E374E084EE96E00E947A
:101A50009B1888EB96E00E948E00AB01BC01898543
:101A60009A85AB85BC85481B590B6A0B7B0B2AE01A
:101A700030E084EE96E00E94251967E374E084EE7E
:101A800096E00E949B1885E996E00E948E00AB01CB
:101A9000BC018D859E85AF85B889481B590B6A0BA3
:101AA0007B0B2AE030E084EE96E00E94251965E485
:101AB00074E084EE96E00E94BA180E94C003669615
:101AC0000FB6F894DEBF0FBECDBFDF91CF911F914F
:101AD0000F91FF90EF90DF90CF90BF90AF909F90CD
:101AE0008F907F906F905F904F903F902F900C94CD
:101AF000C8022F923F924F925F926F927F928F9285
:101B00009F92AF92BF92CF92DF92EF92FF920F938C
:101B10001F93CF93DF93CDB7DEB7E8970FB6F89456
:101B2000DEBF0FBECDBF6C01E12CF12C00E010E058
:101B300088248A94982CAA24AA94BA2CF601848129
:101B40009581E816F906F0F5B701C6010E94FD1768
:101B5000883229F4AB20A09409F006C65701B701DA
:101B6000C6010E94FD17893229F48920809409F06A
:101B7000FEC54701B701C6010E94FD178C32F1F482
:101B8000F801EE0FFF1F81E090E08C0F9D1FE80F22
:101B9000F91FF58AE48A093011051CF40F5F1F4F05
:101BA0000DC06EE474E084EE96E00E949B184AE05B
:101BB00050E0B70184EE96E00E94AE199FEFE91A5B
:101BC000F90ABCCF950140E050E0B601CE018D96F8
:101BD0000E94FF1780918A068823D1F061E674E0A5
:101BE00084EE96E00E949B184AE050E0B50184EE36
:101BF00096E00E94771961E774E084EE96E00E9417
:101C00009B184AE050E0B40184EE96E00E947719F8
:101C1000FFEFAF16BF0609F49AC52FEF82169206A2
:101C200009F498C580918A0681110BC0CE01879670
:101C30007C01C4018A199B0902976CF5612C712CF7
:101C400008C17E0195E1E90EF11C612C712C601632
:101C5000710664F76EE774E084EE96E00E949B18CC
:101C60004AE050E0B30184EE96E00E946F1968E804
:101C700074E084EE96E00E949B18F70161917191E7
:101C80007F014AE050E084EE96E00E947719FFEF72
:101C90006F1A7F0ADCCF80918A06882331F06CE8C6
:101CA00074E084EE96E00E949B184AE050E0B80190
:101CB00084EE96E00E9477199E012D5E3F4F3EAB69
:101CC0002DABCE0101969CAB8BAB612C712CF50139
:101CD0003196F8AFEFAB601671060CF06AC0611474
:101CE000710411F52D893E894FA958ADB601C70180
:101CF0000E94FF17C7010E9444181B012C017A8320
:101D00006983C7010E945F1680918A06882309F4BF
:101D100041C06DE974E084EE96E00E949B184AE0B1
:101D200050E060E070E025C0EDA9FEA9228133817A
:101D3000408151814F5F5F4FB601C7010E94FF177D
:101D4000C7010E9444181B012C01EBA9FCA9718357
:101D50006083C7010E945F1680918A068823D1F0B4
:101D60006DE974E084EE96E00E949B184AE050E032
:101D7000B30184EE96E00E946F1968E874E084EE87
:101D800096E00E949B184AE050E0B10184EE96E094
:101D90000E947719FFEF6F1A7F0A2DA93EA92E5FC7
:101DA0003F4F3EAB2DAB8BA99CA902969CAB8BAB56
:101DB00092CFC80117FF02C080E090E0FC0131968D
:101DC0003F010115110509F4D5C4F8013197EE0F53
:101DD000FF1F21E030E02C0F3D1FE20FF31F44896D
:101DE00055894F5F5F4F9401B601C7010E94FF17ED
:101DF000C7010E9444184B015C01F801EE0FFF1F60
:101E000081E090E08C0F9D1FE80FF91F9182808286
:101E1000C7010E945F1680918A068823D1F06AEA82
:101E200074E084EE96E00E949B184AE050E0B8010E
:101E300084EE96E00E946F1968E874E084EE96E004
:101E40000E949B184AE050E0B40184EE96E00E94A4
:101E5000771980918A06882389F066EB74E084EE16
:101E600096E00E949B18BE01635D7F4F84EE96E072
:101E70000E94A81884EE96E00E94A41862EC74E018
:101E8000C7010E94CD16B701CE018D960E94B317EF
:101E9000182FC7010E945F16112369F00E94920259
:101EA0006114710459F467EB72E084EE96E00E94CD
:101EB000BA1811E004C010E000E002C010E001E038
:101EC00067EC74E0C7010E94CD16B701CE018D9674
:101ED0000E94B317D82EC7010E945F16DD2061F063
:101EE00091E06916710431F489819A810E941E0380
:101EF00011E001C010E001E062ED74E0C7010E9452
:101F0000CD16B701CE018D960E94B317D82EC7010A
:101F10000E945F16DD20D9F0E1E06E167104A9F48D
:101F200069817A81882777FD8095982F0E94CD213D
:101F300023EF36EB4CEA5CE30E9432210E949A21A7
:101F4000CB010E941E0311E001C010E001E068ED2A
:101F500074E0C7010E94CD16B701CE018D960E9494
:101F6000B317D82EC7010E945F16DD2061F0F1E0A3
:101F70006F16710431F489819A810E945E0311E029
:101F800001C010E001E063EE74E0C7010E94CD16CD
:101F9000B701CE018D960E94B317D82EC7010E94BB
:101FA0005F16DD20D9F021E062167104A9F4698181
:101FB0007A81882777FD8095982F0E94CD212CE08B
:101FC00032E04BEA5CE30E9432210E949A21CB016D
:101FD0000E945E0311E001C010E001E069EE74E0D0
:101FE000C7010E94CD16B701CE018D960E94B3178E
:101FF000D82EC7010E945F16DD20A9F132E06316DA
:10200000710479F56B817C81882777FD8095982F05
:102010000E94CD212CE032E04BEA5CE30E943221A9
:102020000E949A214B015C0169817A81882777FDA2
:102030008095982F0E94CD2123EF36EB4CEA5CE38C
:102040000E9432210E949A21DC01CB01B4010E943E
:10205000E40467EB72E084EE96E00E94BA1811E0A7
:1020600001C010E001E06EEE74E0C7010E94CD16E1
:10207000B701CE018D960E94B317D82EC7010E94DA
:102080005F16DD20A1F082E06816710471F46B81A7
:102090007C8189819A810E94E40467EB72E084EE7E
:1020A00096E00E94BA1811E001C010E001E068EF6C
:1020B00074E0C7010E94CD16B701CE018D960E9433
:1020C000B317D82EC7010E945F16DD2099F0611466
:1020D000710471F40E94C80288EB96E00E947302BA
:1020E00067EB72E084EE96E00E94BA1811E001C03E
:1020F00010E001E06FEF74E0C7010E94CD16B70158
:10210000CE018D960E94B317D82EC7010E945F168C
:10211000DD2099F06114710471F40E94C80285E910
:1021200096E00E94730267EB72E084EE96E00E94F4
:10213000BA1811E001C010E001E066E075E0C701E7
:102140000E94CD16B701CE018D960E94B317D82EEE
:10215000C7010E945F16DD20E9F061147104C1F42B
:102160006CE075E084EE96E00E94BA180E94C80206
:1021700085E996E00E94730288EB96E00E94730264
:1021800067EB72E084EE96E00E94BA1811E001C09D
:1021900010E001E066E175E0C7010E94CD16B701CD
:1021A000CE018D960E94B317D82EC7010E945F16EC
:1021B000DD20C9F061147104A1F488EB96E00E945F
:1021C0008E00AB01BC012AE030E084EE96E00E9474
:1021D0008F1967EB72E084EE96E00E94BA1811E066
:1021E00001C010E001E065E275E0C7010E94CD1674
:1021F000B701CE018D960E94B317D82EC7010E9459
:102200005F16DD2009F161147104E1F488EB96E0BA
:102210000E948E000E94CD2123EF36EB4CEA5CE356
:102220000E943221AB01BC0122E030E084EE96E056
:102230000E94AF1A67EB72E084EE96E00E94BA1833
:1022400011E001C010E001E06FE275E0C7010E94FB
:10225000CD16B701CE018D960E94B317D82EC701B7
:102260000E945F16DD20C9F061147104A1F485E9B4
:1022700096E00E948E00AB01BC012AE030E084EEC3
:1022800096E00E948F1967EB72E084EE96E00E9460
:10229000BA1811E001C010E001E06EE375E0C7017B
:1022A0000E94CD16B701CE018D960E94B317D82E8D
:1022B000C7010E945F16DD2009F161147104E1F489
:1022C00085E996E00E948E000E94CD212CE032E04C
:1022D0004BEA5CE30E943221AB01BC0122E030E01A
:1022E00084EE96E00E94AF1A67EB72E084EE96E00F
:1022F0000E94BA1811E001C010E001E068E475E046
:10230000C7010E94CD16B701CE018D960E94B3176A
:10231000D82EC7010E945F16DD2081F06114710480
:1023200059F467EB72E084EE96E00E94BA1881E0FF
:1023300080938A0611E001C010E001E062E575E0DB
:10234000C7010E94CD16B701CE018D960E94B3172A
:10235000D82EC7010E945F16DD2079F06114710448
:1023600051F467EB72E084EE96E00E94BA18109286
:102370008A0611E001C010E001E06DE575E0C701DB
:102380000E94CD16B701CE018D960E94B317D82EAC
:10239000C7010E945F16DD2091F091E0691671047B
:1023A00061F489819A810E94180567EB72E084EEDE
:1023B00096E00E94BA1811E001C010E001E064E666
:1023C00075E0C7010E94CD16B701CE018D960E941F
:1023D000B317D82EC7010E945F16DD2079F0611473
:1023E000710451F40E94C80267EB72E084EE96E03B
:1023F0000E94BA1811E001C010E001E069E673E044
:10240000C7010E94CD16B701CE018D960E94B31769
:10241000D82EC7010E945F16DD2079F06114710487
:1024200051F40E94CE0267EB72E084EE96E00E94C7
:10243000BA1811E001C010E001E067E675E0C701DD
:102440000E94CD16B701CE018D960E94B317D82EEB
:10245000C7010E945F16DD2021F161147104F9F4B7
:102460006BE675E084EE96E00E949B188091A707CA
:102470009091A807009711F48BEA97E0B701681BC9
:10248000790B4AE050E084EE96E00E94771967EB02
:1024900072E084EE96E00E94BA1811E001C010E0EC
:1024A00001E066E775E0C7010E94CD16B701CE01D5
:1024B0008D960E94B317D82EC7010E945F16DD20AB
:1024C00091F0E1E06E16710461F489819A810E94B5
:1024D000390867EB72E084EE96E00E94BA1811E0CA
:1024E00001C010E001E06DE775E0C7010E94CD1664
:1024F000B701CE018D960E94B317D82EC7010E9456
:102500005F16DD20A1F0F2E06F16710471F46B81AB
:102510007C8189819A810E944E0567EB72E084EE8E
:1025200096E00E94BA1811E001C010E001E065E8F1
:1025300075E0C7010E94CD16B701CE018D960E94AD
:10254000B317D82EC7010E945F16DD2099F16114E0
:10255000710471F569E974E084EE96E00E949B18BD
:1025600068EB76E0C7010E944601B70184EE96E071
:102570000E94A818C7010E945F1667E975E084EE03
:1025800096E00E949B1865E976E0C7010E9446012B
:10259000B70184EE96E00E94A818C7010E945F165A
:1025A00067EB72E084EE96E00E94BA1811E001C079
:1025B00010E001E06BE975E0C7010E94CD16B7019C
:1025C000CE018D960E94B317D82EC7010E945F16C8
:1025D000DD2039F123E06216710449F44D815E81FA
:1025E0006B817C8189819A810E94EC0A10C035E060
:1025F00063167104A1F409851A852F8138854D81F0
:102600005E816B817C8189819A810E942F0C67EBAE
:1026100072E084EE96E00E94BA1811E001C010E06A
:1026200001E067EA75E0C7010E94CD16B701CE014F
:102630008D960E94B317D82EC7010E945F16DD2029
:10264000C1F084E06816710491F42F8138854D81C2
:102650005E816B817C8189819A810E948B0867EB06
:1026600072E084EE96E00E94BA1811E001C010E01A
:1026700001E068EB75E0C7010E94CD16B701CE01FD
:102680008D960E94B317D82EC7010E945F16DD20D9
:1026900049F06114710421F40E94A00311E001C00B
:1026A00010E001E06CEC75E0C7010E94CD16B701A7
:1026B000CE018D960E94B317D82EC7010E945F16D7
:1026C000DD2099F095E069167104E9F409851A8511
:1026D0002F8138854D815E816B817C8189819A81D2
:1026E0000E94BA0967EB72E023C001110AC0BE0163
:1026F000635D7F4F84EE96E00E948D1865ED75E076
:1027000011C0111119C06AE176E084EE96E00E94D2
:102710009B184AE050E0B30184EE96E00E946F19E6
:102720006FE276E084EE96E00E94BA186DEE75E0F6
:1027300084EE96E00E94BA1880918A06882369F098
:1027400062E476E084EE96E00E94BA1806C003E0E8
:1027500010E005C004E010E002C000E010E0CE018F
:102760008D960E945F1619C001E010E016C002E0CD
:1027700010E013C094012F5F3F4FA5014F5F5F4FE3
:10278000B601C7010E94FF17C7010E9444187A834F
:102790006983C7010E945F165CCBC801E8960FB63B
:1027A000F894DEBF0FBECDBFDF91CF911F910F9187
:1027B000FF90EF90DF90CF90BF90AF909F908F9061
:1027C0007F906F905F904F903F902F900895EF9281
:1027D000FF920F931F9333E0E32EF12C04E010E0FF
:1027E00025E030E046E050E060E370E088EB96E002
:1027F0000E94E30042E0E42EF12C07E010E028E024
:1028000030E049E050E060E370E085E996E00E9446
:10281000E30082E996E00E94D21C6CE676E08CE848
:1028200096E01F910F91FF90EF900C94CD168CE8DD
:1028300096E00C945F16CF93DF9300D000D000D0C9
:10284000CDB7DEB784EE96E00E94D11A18161906AD
:10285000BCF584EE96E00E94EA1A80938B068932DA
:1028600051F569E28CE896E00E94731780918A0620
:10287000882361F061E676E084EE96E00E949B1882
:102880006CE876E084EE96E00E94A8186CE876E0AA
:10289000CE0101960E94FA16CE0101960E94790D92
:1028A000CE0101960E945F166CE676E08CE896E019
:1028B0000E94031705C0682F8CE896E00E947317EA
:1028C00026960FB6F894DEBF0FBECDBFDF91CF9135
:1028D00008951F920F920FB60F9211242F933F93DA
:1028E0008F939F93AF93BF938091DC069091DD0609
:1028F000A091DE06B091DF063091DB0623E0230FC6
:102900002D3720F40196A11DB11D05C026E8230F27
:102910000296A11DB11D2093DB068093DC069093E7
:10292000DD06A093DE06B093DF068091E00690916D
:10293000E106A091E206B091E3060196A11DB11D4A
:102940008093E0069093E106A093E206B093E3063D
:10295000BF91AF919F918F913F912F910F900FBE9B
:102960000F901F9018958230910538F0880F991FAD
:10297000880F991F05970197F1F70895789484B50A
:10298000826084BD84B5816084BD85B5826085BD6B
:1029900085B5816085BDEEE6F0E080818160808351
:1029A000E1E8F0E010828081826080838081816034
:1029B0008083E0E8F0E0808181608083E1EBF0E0FB
:1029C000808184608083E0EBF0E08081816080839F
:1029D000EAE7F0E080818460808380818260808388
:1029E0008081816080838081806880831092C100B3
:1029F0000895833081F028F4813099F08230A1F07D
:102A000008958730A9F08830B9F08430D1F48091EE
:102A100080008F7D03C0809180008F77809380003D
:102A2000089584B58F7702C084B58F7D84BD0895E5
:102A30008091B0008F7703C08091B0008F7D80932C
:102A4000B0000895CF93DF9390E0FC01E458FF4F6E
:102A50002491FC01E057FF4F8491882349F190E0D5
:102A6000880F991FFC01E854FF4FA591B49182553E
:102A70009F4FFC01C591D4919FB7611108C0F89494
:102A80008C91209582238C93888182230AC06230A6
:102A900051F4F8948C91322F309583238C93888154
:102AA000822B888304C0F8948C91822B8C939FBFD7
:102AB000DF91CF9108950F931F93CF93DF931F92D0
:102AC000CDB7DEB7282F30E0F901E859FF4F8491E8
:102AD000F901E458FF4F1491F901E057FF4F0491B9
:102AE0000023C9F0882321F069830E94F9146981C9
:102AF000E02FF0E0EE0FFF1FE255FF4FA591B491DC
:102B00009FB7F8948C91611103C01095812301C087
:102B1000812B8C939FBF0F90DF91CF911F910F91CD
:102B20000895CF93DF93282F30E0F901E859FF4F44
:102B30008491F901E458FF4FD491F901E057FF4F18
:102B4000C491CC2391F081110E94F914EC2FF0E094
:102B5000EE0FFF1FEC55FF4FA591B4912C912D2343
:102B600081E090E021F480E002C080E090E0DF911D
:102B7000CF9108951F920F920FB60F9211242F93A9
:102B80008F939F93EF93FF93E091F406F091F506F6
:102B90008081E091FA06F091FB0682FD12C09081DF
:102BA0008091FD068F5F8F732091FE06821751F092
:102BB000E091FD06F0E0EC51F94F958F8093FD0612
:102BC00001C08081FF91EF919F918F912F910F9084
:102BD0000FBE0F901F9018951F920F920FB60F9275
:102BE00011242F933F934F935F936F937F938F9312
:102BF0009F93AF93BF93EF93FF9384EE96E00E9471
:102C00000C1BFF91EF91BF91AF919F918F917F919D
:102C10006F915F914F913F912F910F900FBE0F9049
:102C20001F90189584EE96E00E94D11A21E0892B1E
:102C300009F420E0822F08951092E7061092E6062C
:102C400088EE93E0A0E0B0E08093E8069093E90678
:102C5000A093EA06B093EB068DE796E09093E50625
:102C60008093E40685EC90E09093F1068093F00663
:102C700084EC90E09093F3068093F20680EC90E071
:102C80009093F5068093F40681EC90E09093F7061C
:102C90008093F60682EC90E09093F9068093F80614
:102CA00086EC90E09093FB068093FA061092FD0666
:102CB0001092FE061092FF06109200070895FC0184
:102CC000808191810C94E91ECF93DF93EC01888180
:102CD0009981009711F00E94E91E198218821D82C5
:102CE0001C821B821A82DF91CF9108950F931F934C
:102CF000CF93DF93EC018B016F5F7F4F88819981C8
:102D00000E94781F009731F0998388831B830A8380
:102D100081E001C080E0DF91CF911F910F91089574
:102D2000CF93DF93EC0188819981892B29F08A81E7
:102D30009B818617970760F4CE010E947616882340
:102D400041F08C819D81892B19F4E881F9811082F1
:102D500081E0DF91CF910895EF92FF920F931F933F
:102D6000CF93DF93EC017B018A01BA010E94901698
:102D7000811104C0CE010E94641607C01D830C831C
:102D8000B701888199810E947D20CE01DF91CF918A
:102D90001F910F91FF90EF900895FC011182108216
:102DA00013821282158214826115710559F0FB019C
:102DB00001900020E9F7AF0141505109461B570B24
:102DC0000C94AC160895CF93DF93EC01FB018617AA
:102DD000970761F0608171816115710529F0448167
:102DE00055810E94AC1602C00E946416CE01DF918C
:102DF000CF910895FC0111821082138212821582F4
:102E000014820C94E316CF93DF93EC0161157105E6
:102E100061F0FB0101900020E9F7AF014150510939
:102E2000461B570B0E94AC1602C00E946416CE01CE
:102E3000DF91CF9108950F931F93CF93DF93CDB779
:102E4000DEB762970FB6F894DEBF0FBECDBF8C0120
:102E5000CB01F80111821082138212821582148232
:102E600050E0BE016F5F7F4F0E948420BE016F5F04
:102E70007F4FC8010E94031762960FB6F894DEBF19
:102E80000FBECDBFDF91CF911F910F910895EF92AB
:102E9000FF920F931F93CF93DF93EC017B010C8183
:102EA0001D816115710511F480E016C041155105B1
:102EB00091F0040F151FB8010E9490168823A1F30A
:102EC000288139818C819D81B701820F931F0E94D7
:102ED0007D201D830C8381E0DF91CF911F910F91A5
:102EE000FF90EF900895CF93DF9300D0CDB7DEB77A
:102EF00069831A8241E050E0BE016F5F7F4F0E94FC
:102F000047170F900F90DF91CF910895CF93DF93E4
:102F1000EC01FB0144815581608171810E9447175A
:102F2000811103C0CE010E946416CE01DF91CF91C2
:102F30000895CF93DF93EC016115710569F0FB01F2
:102F400001900020E9F7AF0141505109461B570B92
:102F50000E944717811103C0CE010E946416CE0162
:102F6000DF91CF910895EF92FF920F931F93CF932C
:102F7000DF938617970731F1FC0124813581FB012E
:102F80004481558124173507F9F4232BD9F0FC012E
:102F900000811181FB01C081D181F80181918F01F4
:102FA000882381F0992787FD90950E946C207C01F1
:102FB0008991992787FD90950E946C20E816F90663
:102FC00061F302C081E001C080E0DF91CF911F91E9
:102FD0000F91FF90EF900895FC01248135816217D5
:102FE000730748F480819181009729F0FC01E60F76
:102FF000F71F8081089580E008950C94EC17BF922C
:10300000CF92DF92EF92FF920F931F93CF93DF93B4
:103010006C017B01EA0189012417350720F48D2F0B
:10302000E901042F182F6CE676E0C6010E94CD1648
:10303000D70114968D919C911597C817D907C8F49C
:103040008017910708F48C01D701ED91FC9111973D
:10305000E00FF11FB08010826D917C916C0F7D1F8D
:10306000C6010E940317D701ED91FC91E00FF11FFB
:10307000B082C601DF91CF911F910F91FF90EF9029
:10308000DF90CF90BF900895FC01808191810097DF
:1030900011F00C94422060E070E0CB010895CF92D3
:1030A000DF92EF92FF920F931F93CF93DF937C01F8
:1030B0006A01EB0100E010E00C151D0571F069914B
:1030C000D701ED91FC910190F081E02DC7010995A8
:1030D000892B19F00F5F1F4FEFCFC801DF91CF9100
:1030E0001F910F91FF90EF90DF90CF9008956115A1
:1030F000710581F0DB010D900020E9F7AD01415031
:103100005109461B570BDC01ED91FC910280F381C4
:10311000E02D099480E090E00895DC01ED91FC91B0
:10312000DB0114964D915C9115976D917C91028015
:10313000F381E02D09940C947718DC01ED91FC915A
:103140000190F081E02D09946AE676E00C947718FE
:103150000F931F93CF93DF93EC010E948D188C0186
:10316000CE010E94A418800F911FDF91CF911F9173
:103170000F9108950F931F93CF93DF93EC010E945B
:1031800077188C01CE010E94A418800F911FDF9147
:10319000CF911F910F9108958F929F92AF92BF92FE
:1031A000CF92DF92EF92FF920F931F93CF93DF9313
:1031B000CDB7DEB7A1970FB6F894DEBF0FBECDBF77
:1031C0007C01C42EE52FCB01D22E19A221E02D15B2
:1031D00010F02AE0D22E8E010F5D1F4F8D2C912C06
:1031E000A12CB12C6C2D7E2FA50194010E94C4232B
:1031F0008C2DD29E80191124015011098A3014F4AB
:10320000805D01C0895CF80180832115310541058D
:10321000510521F0C22EE32FCA01E4CFB801C70146
:103220000E947718A1960FB6F894DEBF0FBECDBFEF
:10323000DF91CF911F910F91FF90EF90DF90CF9092
:10324000BF90AF909F908F900895CF92DF92EF92B2
:10325000FF920F931F93CF93DF93EC016A017B01E1
:103260002115310579F4E881F9810190F081E02D93
:10327000642FDF91CF911F910F91FF90EF90DF901E
:10328000CF9009942A303105E9F477FF1AC06DE236
:103290000E949D188C0144275527BA014C195D09DD
:1032A0006E097F092AE0CE010E94CC18800F911F81
:1032B000DF91CF911F910F91FF90EF90DF90CF9012
:1032C00008952AE0B701A601CE01DF91CF911F91A9
:1032D0000F91FF90EF90DF90CF900C94CC189A0153
:1032E000AB01662757FD6095762F0C9425190F9337
:1032F0001F93CF93DF93EC019A01AB01662757FD33
:103300006095762F0E9425198C01CE010E94A41889
:10331000800F911FDF91CF911F910F9108950F930F
:103320001F93CF93DF93EC010E9425198C01CE01EE
:103330000E94A418800F911FDF91CF911F910F91D0
:1033400008952115310541F4DC01ED91FC910190C6
:10335000F081E02D642F09940C94CC180F931F93E7
:10336000CF93DF93EC019A01AB0160E070E00E9423
:10337000A1198C01CE010E94A418800F911FDF912A
:10338000CF911F910F9108954F925F926F927F920C
:103390008F929F92AF92BF92CF92DF92EF92FF9265
:1033A0000F931F93CF93DF93EC016A017B01B22E41
:1033B0009A01AB01C701B6010E947923882319F055
:1033C0006DE676E027C026013701E89477F82FEF05
:1033D0003FEF4FE75FE7C301B2010E9479238111FC
:1033E0000DC02FEF3FEF4FE75FE7C301B2010E942F
:1033F0002E2118161CF461E776E00CC02FEF3FEF8A
:103400004FE75FE4C701B6010E94D0221816ACF462
:1034100065E776E0CE01DF91CF911F910F91FF908C
:10342000EF90DF90CF90BF90AF909F908F907F9064
:103430006F905F904F900C9477182FEF3FEF4FE70E
:103440005FECC701B6010E942E2187FDE1CF20E08D
:1034500030E0A901C701B6010E942E2187FF0AC0F2
:103460006DE2CE010E949D188C01F7FAF094F7F8F6
:10347000F09402C000E010E0A12C60E070E080E079
:103480009FE3AB1441F020E030E040E251E40E94C1
:103490003221A394F6CF9B01AC01C701B6010E9473
:1034A000CA206B017C010E949F212B013C010E94DC
:1034B000CB219B01AC01C701B6010E94C9206B0161
:1034C0007C012AE0B301A201CE010E94CC18080FB2
:1034D000191FBB2039F069E373E0CE010E94771811
:1034E000080F191F7B2C772041F120E030E040E2EB
:1034F00051E4C701B6010E94D4226B017C010E94F5
:103500009A214B01AA2497FCA094BA2C2AE030E01F
:10351000B501A401CE010E942519080F191FC5018C
:10352000B4010E94CD219B01AC01C701B6010E94EC
:10353000C9206B017C017A94D6CFC801DF91CF916D
:103540001F910F91FF90EF90DF90CF90BF90AF90C1
:103550009F908F907F906F905F904F9008950F9302
:103560001F93CF93DF93EC010E94C4198C01CE010D
:103570000E94A418800F911FDF91CF911F910F918E
:10358000089508950E94BE140E94C11A0E94C803A3
:10359000CEEFDAE10E941B142097E1F30E94FE1A9D
:1035A000F9CFFC01818D228D90E0805C9F4F821BC2
:1035B00091098F7399270895FC01918D828D981739
:1035C00031F0828DE80FF11D858D90E008958FEF29
:1035D0009FEF0895FC01918D828D981761F0828D87
:1035E000DF01A80FB11D5D968C91928D9F5F9F7337
:1035F000928F90E008958FEF9FEF089582E196E11A
:10360000892B49F080E090E0892B29F00E94121666
:1036100081110C9400000895FC01848DDF01A80F36
:10362000B11DA35ABF4F2C91848D90E001968F73EA
:103630009927848FA689B7892C93A089B1898C9109
:1036400080648C93938D848D981306C00288F389CF
:10365000E02D80818F7D80830895CF93DF93EC01EF
:10366000888D8823C9F0EA89FB89808185FD05C0A2
:10367000A889B9898C9186FD0FC00FB607FCF5CFDC
:10368000808185FFF2CFA889B9898C9185FFEDCF24
:10369000CE010E940C1BE7CFDF91CF910895CF920E
:1036A000DF92FF920F931F93CF93DF931F92CDB7BB
:1036B000DEB76C0181E0D60158968C9358975B96E3
:1036C0009C915B975C968C915C97981307C0509681
:1036D000ED91FC915197808185FD2EC0F601038DFF
:1036E00010E00F5F1F4F0F731127F02EF601848D2E
:1036F000F81211C00FB607FCF9CFD6015096ED9124
:10370000FC915197808185FFF1CFC60169830E94AA
:103710000C1B6981EBCF838DE80FF11DE35AFF4F3E
:103720006083D6015B960C935B975296ED91FC916A
:103730005397808180620CC0D6015696ED91FC9122
:10374000579760835096ED91FC91519780818064EA
:10375000808381E090E00F90DF91CF911F910F91D6
:10376000FF90DF90CF900895BF92CF92DF92EF92BB
:10377000FF92CF93DF93EC016A017B01B22EE889BF
:10378000F98982E08083411581EE58076105710552
:10379000A1F060E079E08DE390E0A70196010E943E
:1037A000C423215031094109510956954795379550
:1037B0002795211580E1380798F0E889F98910826A
:1037C00060E874E88EE190E0A70196010E94C423AE
:1037D000215031094109510956954795379527954B
:1037E000EC85FD853083EE85FF852083188EEC897E
:1037F000FD89B082EA89FB89808180618083EA89C2
:10380000FB89808188608083EA89FB898081806868
:103810008083EA89FB8980818F7D8083DF91CF91CE
:10382000FF90EF90DF90CF90BF9008951F920F927E
:103830000FB60F9211242F933F934F935F936F9383
:103840007F938F939F93AF93BF93EF93FF93809159
:10385000820787FF05C010928500109284001AC06D
:1038600020918207332727FD30958091810790E0D2
:10387000281739077CF480918207992787FD909556
:10388000FC01EE0FFF1FE80FF91FED57F84F808185
:1038900086FD15C0809182078F5F809382072091FB
:1038A0008207332727FD30958091810790E0281704
:1038B0003907BCF4809182078C305CF112C0809192
:1038C0008207992787FD9095FC01EE0FFF1FE80FF7
:1038D000F91FED57F84F808160E08F730E945B15F0
:1038E000D9CF8091840090918500049680349C49C2
:1038F00018F480E49CE905C08091840090918500D3
:10390000049690938900809388008FEF80938207BC
:1039100038C02091840030918500809182079927DA
:1039200087FD9095FC01EE0FFF1FE80FF91FED5783
:10393000F84F81819281820F931F90938900809329
:10394000880080918207992787FD9095FC01EE0FF2
:10395000FF1FE80FF91FED57F84F808186FF11C058
:1039600080918207992787FD9095FC01EE0FFF1F3C
:10397000E80FF91FED57F84F808161E08F730E94C7
:103980005B15FF91EF91BF91AF919F918F917F91C7
:103990006F915F914F913F912F910F900FBE0F90BC
:1039A0001F901895209181072C30A0F431E0320F40
:1039B00030938107FC012083822F90E0FC01EE0F01
:1039C000FF1FE80FF91FED57F84F88EB9BE092833C
:1039D000818308952FEFFC0120830895DF92EF92F9
:1039E000FF920F931F93CF93DF93EC01D62E7A01B2
:1039F000890188818C3008F066C061E08D2D0E94BD
:103A000022158881A82FB0E0FD01EE0FFF1FEA0FFD
:103A1000FB1FED57F84F2D2D2F739081907C922B2B
:103A2000908360E272E06E197F0977FF02C06D5FDC
:103A30007F4F7595679575956795698340E659E061
:103A4000401B510B57FF02C04D5F5F4F5595479587
:103A5000559547954A836CE00E94A4239CE0899F7A
:103A6000B001112420E030E0A901460F571FFA01F0
:103A7000EE0FFF1FE40FF51FED57F84F908196FDF5
:103A800016C02F5F3F4F2C30310571F781110FC0E9
:103A90001092800082E08093810010928500109245
:103AA0008400B19A80916F00826080936F0088815A
:103AB00090E0FC01EE0FFF1FE80FF91FED57F84FE4
:103AC0008081806480838881DF91CF911F910F91E5
:103AD000FF90EF90DF90089520E639E040E252E059
:103AE0000C94EE1CFC0180818C3070F5918128E8EB
:103AF00030E0291B310997FD3395220F331F220F28
:103B0000331F621773077CF0928128E532E0291B8E
:103B1000310997FD3395220F331F220F331F621790
:103B200073070CF49B0122503109220F331F4FB74A
:103B3000F89490E0FC01EE0FFF1FE80FF91FED571E
:103B4000F84F328321834FBF08954F925F926F9257
:103B50007F92AF92BF92CF92DF92EF92FF920F933C
:103B60001F93CF93DF93EC01603282E078070CF073
:103B700040C077FD06C0653B71052CF064EB70E03A
:103B800002C060E070E0898128E830E0281B31093C
:103B900087FD3395220F331F220F331F5901CC2489
:103BA000B7FCC094DC2C882777FD8095982F2A815C
:103BB00048E552E0421B510927FD5395440F551F1C
:103BC000440F551F2A01662457FC6094762C7F927F
:103BD0006F925F924F9214EBE12EF12C00E010E017
:103BE00020E030E0A9010E940A1E0F900F900F9074
:103BF0000F90CE01DF91CF911F910F91FF90EF9029
:103C0000DF90CF90BF90AF907F906F905F904F907C
:103C10000C94721D4F925F926F927F92AF92BF92FF
:103C2000CF92DF92EF92FF920F931F93CF93DF9388
:103C3000CDB7DEB729013A01621B730B840B950BDC
:103C400029893A894B895C892A193B094C095D0904
:103C5000298B3A8B4B8B5C8B9B01AC0169897A89F0
:103C60008B899C890E949423E418F508060917099A
:103C7000A80197010E94E6232A0D3B1D4C1D5D1DE6
:103C8000CA01B901DF91CF911F910F91FF90EF9081
:103C9000DF90CF90BF90AF907F906F905F904F90EC
:103CA0000895CF93DF938230910510F482E090E085
:103CB000E091A907F091AA0720E030E0A0E0B0E091
:103CC000309739F14081518148175907B8F04817AA
:103CD000590771F482819381109729F013969C9370
:103CE0008E9312972CC09093AA078093A90727C0A0
:103CF0002115310531F04217530718F0A901DB01F6
:103D000001C0EF019A01BD01DF010280F381E02DC6
:103D1000D7CF21153105F9F0281B390B2430310597
:103D200080F48A819B816115710521F0FB019383E9
:103D3000828304C09093AA078093A907FE0132965C
:103D400044C0FE01E20FF31F819391932250310989
:103D5000398328833AC02091A7073091A807232BE5
:103D600041F420910201309103013093A807209380
:103D7000A70720910001309101012115310541F47F
:103D80002DB73EB74091040150910501241B350B1E
:103D9000E091A707F091A807E217F307A0F42E1B04
:103DA0003F0B2817390778F0AC014E5F5F4F24179F
:103DB000350748F04E0F5F1F5093A8074093A707A1
:103DC0008193919302C0E0E0F0E0CF01DF91CF91C9
:103DD0000895CF93DF93009709F487C0FC013297D1
:103DE00013821282C091A907D091AA07209781F46B
:103DF00020813181280F391F8091A7079091A80752
:103E00008217930779F5F093A807E093A7076DC091
:103E1000DE0120E030E0AE17BF0750F412964D915E
:103E20005C9113979D014115510509F1DA01F3CF1A
:103E3000B383A28340815181840F951F8A179B070A
:103E400071F48D919C911197840F951F0296918327
:103E5000808312968D919C91139793838283211571
:103E6000310529F4F093AA07E093A9073EC0D901D0
:103E70001396FC93EE9312974D915D91A40FB51F8D
:103E8000EA17FB0779F480819181840F951F0296D0
:103E9000D90111969C938E938281938113969C9362
:103EA0008E931297E0E0F0E08A819B81009719F0F1
:103EB000FE01EC01F9CFCE01029628813981820FF3
:103EC000931F2091A7073091A8072817390769F495
:103ED000309729F41092AA071092A90702C0138202
:103EE0001282D093A807C093A707DF91CF910895BE
:103EF000A0E0B0E0EEE7FFE10C941C24EC01CB0164
:103F0000209719F40E94511EB8C0FE01E60FF71F5A
:103F10009E0122503109E217F30708F4ACC0D90121
:103F20000D911C91119706171707B8F00530110570
:103F300008F49FC0A801445051094617570708F4D8
:103F400098C002501109061B170B019311936D9332
:103F50007C93CF010E94E91E8CC05B01A01AB10ABC
:103F60004E01800E911EA091A907B091AA07612C65
:103F7000712C60E070E0109709F449C0A815B905EC
:103F8000C9F5ED90FC901197670142E0C40ED11C79
:103F9000CA14DB0478F147018A189B08640142E0E7
:103FA000C40ED11C1296BC9012971396AC91B5E03A
:103FB000CB16D10440F0B282A38391828082D901D2
:103FC0008D939C9309C00E5F1F4F0E0D1F1DF901AD
:103FD00011830083EB2DFA2F6115710531F0DB01A0
:103FE0001396FC93EE93129744C0F093AA07E093C4
:103FF000A9073FC06D917C9111976616770608F46A
:104000003B01BD0112960D90BC91A02DB4CF6091E3
:10401000A7077091A80768157905E9F4681679066D
:10402000D0F440910001509101014115510541F436
:104030004DB75EB76091040170910501461B570BA7
:10404000E417F507C0F4F093A807E093A707F90178
:10405000918380830EC00E94511E7C01009759F00D
:10406000A801BE010E947420CE010E94E91EC70172
:1040700004C0CE0102C080E090E0CDB7DEB7EEE034
:104080000C9438241F93FC0199278827BC01E894DD
:1040900011911032E9F3193010F01E30C8F31B32C1
:1040A00051F01D3249F4689406C00E949A20610FB5
:1040B000711D811D911D119110531A30B0F33EF402
:1040C00090958095709561957F4F8F4F9F4F1F9171
:1040D0000895F8940C9464249111089581548A51A0
:1040E00008F4805E855A0895FB01DC0102C001904E
:1040F0000D9241505040D8F70895FB01DC0101902A
:104100000D920020E1F708954532510520F4423028
:1041100010F00C948F20FB011082CB010895BB2777
:104120004A3031F4992322F4BDE2909581959F4F56
:104130000C94B020592F482F372F262F660F771F4A
:10414000881F991F660F771F881F991F620F731FA3
:10415000841F951F660F771F881F991F0895BB271F
:10416000FB015527AA27880F991FAA1FA41710F033
:10417000A41B83955051B9F7A05DAA3308F0A95D3F
:10418000A193009779F7B111B1931192CB010C94DF
:104190007D235058BB27AA270ED0B1C1A2D130F041
:1041A000A7D120F031F49F3F11F41EF497C10EF413
:1041B000E095E7FB64C1E92FB3D180F3BA1762073A
:1041C00073078407950718F071F49EF5E2C10EF4A9
:1041D000E0950B2EBA2FA02D0B01B90190010C0117
:1041E000CA01A0011124FF27591B99F0593F50F42F
:1041F000503E68F11A16F040A22F232F342F442787
:10420000585FF3CF469537952795A795F04053957E
:10421000C9F77EF41F16BA0B620B730B840BBAF04E
:104220009150A1F0FF0FBB1F661F771F881FC2F7B9
:104230000EC0BA0F621F731F841F48F487957795CD
:104240006795B795F7959E3F08F0B3CF9395880F84
:1042500008F09927EE0F979587950895ECD008F40C
:1042600081E008950CD04BC143D140F03AD130F0F9
:1042700021F45F3F19F003C151118CC12FC150D1FE
:1042800098F39923C9F35523B1F3951B550BBB271D
:10429000AA2762177307840738F09F5F5F4F220FCA
:1042A000331F441FAA1FA9F333D00E2E3AF0E0E8C3
:1042B00030D091505040E695001CCAF729D0FE2F0F
:1042C00027D0660F771F881FBB1F261737074807A1
:1042D000AB07B0E809F0BB0B802DBF01FF27935857
:1042E0005F4F2AF09E3F510568F0C9C053C15F3F40
:1042F000ECF3983EDCF3869577956795B795F7953F
:104300009F5FC9F7880F911D9695879597F9089536
:10431000E1E0660F771F881FBB1F621773078407D2
:10432000BA0720F0621B730B840BBA0BEE1F88F7E1
:10433000E095089504D06894B1112CC10895F8D087
:1043400088F09F5790F0B92F9927B751A0F0D1F07E
:10435000660F771F881F991F1AF0BA95C9F712C008
:10436000B13081F016D1B1E0089513C1672F782FD5
:104370008827B85F39F0B93FCCF386957795679574
:10438000B395D9F73EF490958095709561957F4FE0
:104390008F4F9F4F0895E89409C097FB3EF4909586
:1043A0008095709561957F4F8F4F9F4F9923A9F00E
:1043B000F92F96E9BB279395F6958795779567959D
:1043C000B795F111F8CFFAF4BB0F11F460FF1BC0E1
:1043D0006F5F7F4F8F4F9F4F16C0882311F096E974
:1043E00011C0772321F09EE8872F762F05C0662322
:1043F00071F096E8862F70E060E02AF09A95660FDB
:10440000771F881FDAF7880F9695879597F9089593
:10441000A9D080F09F3740F491110EF0BBC060E04E
:1044200070E080E89FEB089526F41B16611D711D56
:10443000811D2BC045C0990F0008550FAA0BE0E85D
:10444000FEEF16161706E807F907C0F01216130656
:10445000E407F50798F0621B730B840B950B39F496
:104460000A2661F0232B242B252B21F408950A26FC
:1044700009F4A140A6958FEF811D811D089597F93C
:104480009F6780E870E060E00895882371F47723E7
:1044900021F09850872B762F07C0662311F49927B7
:1044A0000DC09051862B70E060E02AF09A95660F5F
:1044B000771F881FDAF7880F9695879597F90895E3
:1044C0009F3F31F0915020F4879577956795B79588
:1044D000880F911D9695879597F908959FEF80EC29
:1044E000089500240A94161617061806090608955A
:1044F00000240A9412161306140605060895092EC0
:104500000394000C11F4882352F0BB0F40F4BF2B2E
:1045100011F460FF04C06F5F7F4F8F4F9F4F08956E
:1045200057FD9058440F551F59F05F3F71F0479564
:10453000880F97FB991F61F09F3F79F08795089549
:10454000121613061406551FF2CF4695F1DF08C068
:10455000161617061806991FF1CF86957105610585
:1045600008940895E5DFA0F0BEE7B91788F4BB27EB
:104570009F3860F41616B11D672F782F8827985F33
:10458000F7CF869577956795B11D93959639C8F3C2
:104590000895E894BB2766277727CB0197F90895FC
:1045A0004ADF08F48FEF08950BD0A9CF9ADF28F0E7
:1045B0009FDF18F0952309F062CF90CF1124EACF46
:1045C000AFDFA0F3959FD1F3950F50E0551F629F89
:1045D000F001729FBB27F00DB11D639FAA27F00D5C
:1045E000B11DAA1F649F6627B00DA11D661F829F83
:1045F0002227B00DA11D621F739FB00DA11D621F68
:10460000839FA00D611D221F749F3327A00D611D84
:10461000231F849F600D211D822F762F6A2F112466
:104620009F5750408AF0E1F088234AF0EE0FFF1FB9
:10463000BB1F661F771F881F91505040A9F79E3FF0
:10464000510570F01CCFA6CF5F3FECF3983EDCF332
:10465000869577956795B795F795E7959F5FC1F72D
:10466000FE2B880F911D9695879597F9089511F463
:104670000EF434CF25CF5CDFD0F39923D9F3CEF3FA
:104680009F57550B87FF49D00024A0E640EA9001D0
:1046900080585695979528F4805C660F771F881F81
:1046A00020F026173707480730F4621B730B840B82
:1046B000202931294A2BA6951794079420253125C6
:1046C0004A2758F7660F771F881F20F026173707ED
:1046D000480730F4620B730B840B200D311D411D14
:1046E000A09581F7B901842F9158880F96958795E9
:1046F0000895A1DE880B990B0895DC01FC01672F5A
:1047000071917723E1F7329704C07C916D937083A8
:104710006291AE17BF07C8F3089591505040660FDD
:10472000771F881FD2F70895DB018F939F930E9414
:104730000524BF91AF91A29F800D911DA39F900D65
:10474000B29F900D11240895991B79E004C0991F20
:10475000961708F0961B881F7A95C9F780950895DB
:10476000AA1BBB1B51E107C0AA1FBB1FA617B70797
:1047700010F0A61BB70B881F991F5A95A9F78095B3
:104780009095BC01CD010895A1E21A2EAA1BBB1B76
:10479000FD010DC0AA1FBB1FEE1FFF1FA217B3070D
:1047A000E407F50720F0A21BB30BE40BF50B661F23
:1047B000771F881F991F1A9469F7609570958095E7
:1047C00090959B01AC01BD01CF010895052E97FB8B
:1047D0001EF400940E94FD2357FD07D00E94C423BD
:1047E00007FC03D04EF40C94FD2350954095309572
:1047F00021953F4F4F4F5F4F08959095809570954D
:1048000061957F4F8F4F9F4F08950E945524A59F1C
:10481000900DB49F900DA49F800D911D11240895BB
:10482000B7FF0C9405240E940524821B930B089566
:104830002F923F924F925F926F927F928F929F92B0
:10484000AF92BF92CF92DF92EF92FF920F931F939E
:10485000CF93DF93CDB7DEB7CA1BDB0B0FB6F8944F
:10486000DEBF0FBECDBF09942A88398848885F848F
:104870006E847D848C849B84AA84B984C884DF8000
:10488000EE80FD800C811B81AA81B981CE0FD11DE4
:104890000FB6F894DEBF0FBECDBFED010895EE0F49
:1048A000FF1F0590F491E02D0994A29FB001B39FE2
:1048B000C001A39F700D811D1124911DB29F700D29
:1048C000811D1124911D089510E0C6ECD0E004C0B4
:1048D000FE010E9451242296C83CD107C9F7F894E2
:0248E000FFCF08
:1048E2000000AB078000010000006D6963726F5326
:1048F20074657070696E67466163746F723A200006
:10490200205374657070696E67466163746F723AA2
:1049120020007B646F6E657D002D2D2D2D2D2D2D9C
:104922002D2D2D2D2D2D2D2D2D2D2D2D2D2D2D2DB5
:104932002D2D2D2D2D2D2D48454C502D2D2D2D2D30
:104942002D2D2D2D2D2D2D2D2D2D2D2D2D2D2D2D95
:104952002D2D2D2D2D2D2D2D2D00456E74657220A2
:10496200636F6D6D616E6473206C696B6520636F3C
:104972006D6D616E6428617267756D656E74312C40
:10498200202E2E2E617267756D656E746E29004140
:104992006C726561647920737570706F727465648E
:1049A20020636F6D6D616E64733A0068656C702888
:1049B200292020202020766572626F73654F6E2851
:1049C200292020766572626F73654F6666282920FA
:1049D2002072616D2829006D6F766528782C7929FF
:1049E20020206D6F766558287829202020202020ED
:1049F2006D6F766559287929007570282920202045
:104A020020202020646F776E2829007265736574F8
:104A120028292020202072657365745828292020B7
:104A22002020202072657365745928292000706F38
:104A3200736974696F6E582829202020706F73691A
:104A420074696F6E59282900737175617265286CDB
:104A5200292020646961676F6E616C286C2C64295F
:104A620020636972636C652829202020202020653C
:104A72006C6C697073652829006D6F76696E6720AA
:104A82000020737465707320696E20782D646972DA
:104A9200656374696F6E005B646F6E655D005B6673
:104AA20061696C65645D0020737465707320696E62
:104AB20020792D646972656374696F6E202E2E2EC3
:104AC20020005B4572726F72200048656C6C6F202B
:104AD2007573657221205468697320697320746844
:104AE2006520506C6F7452207769746820506C6F27
:104AF200747465724178697333205600783B79008B
:104B02003B0020737465707320696E20792D64698F
:104B120072656374696F6E2E2E2E006472617769FE
:104B22006E6720656C6C6970736520613D200020A2
:104B3200623D20006D6F76696E6720746F20746F1E
:104B420070006D6F76696E6720646F776E003173E7
:104B520074207175616472616E7400326E642071CA
:104B620075616472616E7400337264207175616480
:104B720072616E7400347468207175616472616E62
:104B8200740044726177696E6720636F6F72646943
:104B92006E61746553797374656D207479706520E4
:104BA20030207C5F0044726177696E6720636F6FAB
:104BB2007264696E61746553797374656D2074797A
:104BC20070652031202B004E6F7420696D706C650A
:104BD2006D656E7465642079652100647261776920
:104BE2006E67206C696E6561722066756E637469AA
:104BF2006F6E20662878293D00782B00317374206F
:104C02007175616472616E7420286F6620312900AB
:104C12006D6F766564200020582D53746570732083
:104C2200616E64200020592D537465707300746F97
:104C32006F206D616E7920636F6D6D617320617499
:104C4200000A626567696E427261636B65743A203D
:104C520000656E64427261636B65743A2000436F53
:104C62006D6D612020202000203A20006E6578744E
:104C7200436F6D6D61496E6465783A2000417267D9
:104C8200756D656E742020202000417267756D6518
:104C92006E74202020004D6574686F64653A202090
:104CA200200068656C70006D6F766558737465706E
:104CB20073006D6F766558006D6F76655973746514
:104CC2007073006D6F766559006D6F7665006D6F5C
:104CD20076655374657073007265736574580072FB
:104CE20065736574590072657365740072657365E6
:104CF2007474696E6700706F736974696F6E58734C
:104D02007465707300706F736974696F6E580070A8
:104D12006F736974696F6E59737465707300706F25
:104D2200736974696F6E5900766572626F73654F4D
:104D32006E00766572626F73654F66660073717599
:104D42006172650075700072616D00667265652042
:104D520052414D3A2000636972636C6500656C6C68
:104D620069707365006D6963726F53746570706901
:104D72006E67496E666F00793A200050617061502B
:104D820061747465726E00636F6F7264696E6174D0
:104D92006553797374656D0064726177486F7269E7
:104DA2007A6F6E74616C4E6F746368006C696E46E4
:104DB200756E6374002829206973206E6F207661F6
:104DC2006C696420636F6D6D616E642100656E7441
:104DD20065722068656C70282920746F2073656580
:104DE2002061206C697374206F662076616C69643F
:104DF20020636F6D6D616E647300706172616D65C9
:104E0200746572206D69736D61746368212000207E
:104E1200706172616D657465727320676976656E23
:104E22002E005B646F6E655D207769746820636F26
:104E32006D6D616E642070726F63657373696E6706
:104E420000537472696E673A20000D0A006E616E3B
:104E520000696E66006F766600000000004F1B4F0F
:0A4E620018D11AEA1ADC1A2D1B0001
:00000001FF
